:100000000C9436040C9453040C946E040C94530416
:100010000C9453040C9453040C9453040C94530404
:100020000C9453040C9453040C94581A0C945304D9
:100030000C9453040C9453040C9453040C945304E4
:100040000C9453040C9453040C9453040C945304D4
:100050000C945304FD377A585A000004E6D6B4468F
:100060000200210116000000742FE5A3E008400201
:100070005C5D003D8889C65436C3174FE4E2AA5B35
:10008000163F2BAEA56527EB3DBD58F7016193C127
:10009000418605BFAD66DDA83147B3B902E5F5720B
:1000A000F31559FAEB80DE2EBCF9E96BC5BAEEF414
:1000B0008739652B2C6426FCAC5D1D7D29CE180587
:1000C000B2B3C349FB4F2E2864C94EC31ADBA62224
:1000D00014AD6856FAB088527536C0178FFAA55617
:1000E000C66A86DA379F3095B6EC77132B1875976A
:1000F0008CBB9432F0843A5ACBB9959D0A2B94D597
:1001000079915A0136D8148C99C46CC7D7A770D48A
:100110008A7794755E8032F2C09C2F52BD61F83FA1
:100120003468523AFBCA41172DF068FB8EE80EF78F
:10013000329CA8CE8C36DB91DA5200A749A9327FD7
:1001400008BBFFA091E1BDAD1617953A56B50A3927
:10015000A2BA87AC30B599A51546D4CA05CB0ED046
:10016000FA6F0158B2C9916EEC923A1FA296F3CC85
:10017000AA6FFACC9A9573329E49FCCF1634411976
:1001800034EC13EADC5089771B8336B06046155691
:100190000A4ADCEF3AAB3E59E0D43BA891DD6B79DB
:1001A000B9F0630FDF909411A2DBA34B0454E11567
:1001B0005F9D552675F75E051967D24D293132FAD4
:1001C00093D0CC4F8CB84E3CE9A49C50BA314485B6
:1001D000A692BA7DC674038833D18BEFBAC13F6E45
:1001E0007ECE30F23D801FEC7DB1A5EB9D9B576C20
:1001F0000495586A76C0BA1F49FD7FC9734E32B064
:100200002B206B01E7F8109E08741BB1C16CF8C17C
:1002100095A927827BA98EE8B2F324FFFF1B278EC6
:10022000890BF2829DD3D7E78BE9746F90FCFBF8C2
:100230009EFD0585A3EBBF67771D3440CC260AF1F0
:1002400069FEDB16D78075A8122CC9F967DCE3DAE2
:10025000AB0B401838F671BC0552DF07E8821F640B
:10026000D666B2776F16EBC38398CCA91E96199108
:100270000F8DDE3ED563813E1E9C0FC51C09467D59
:1002800032A1D046A6DB24D19DEB806981ADB55B60
:1002900069EE346CB24A58A8781EF3A4905AFE1145
:1002A000BBC7FA58A70C9CBAAB2027F76733B763D4
:1002B000377658360EA4120B9719DE3548A4DA8B20
:1002C0002EEB01FA69E43546CD6E2095B99B00000E
:1002D000487CA97F0E7286D00001F804C11000008E
:1002E0007AC3C31DB1C467FB020000000004595A61
:1002F000FA00F900C55CC65CC95CCA5CC35CC45C3E
:10030000290000003A003B003C003D003E003F0059
:100310004000410000004200430044004500460008
:100320004700A80035001E001F0020002100220009
:10033000230024002500260027002D002E002A007F
:100340004C0049004A004B002B0014001A00080022
:10035000150017001C0018000C00120013002F00DD
:100360003000010000004C004D004E003900040038
:100370001600070009000A000B000D000E000F0018
:1003800033003400000028000000000000000000DE
:10039000E1001B00060019000500110010003600E6
:1003A0003700380031001D000000E5000151000059
:1003B00052000000E000E300E20000000000000046
:1003C0002C0000000000E600E700000001510000E2
:1003D000E400500051004F00010000000100010046
:1003E0000100010001000100010001000000010006
:1003F00001000100010001000100010001000100F5
:1004000001000100010001000100010001000100E4
:1004100001000100010001000100010001000100D4
:100420000100010001000100005C01000100010069
:1004300001000100010001000100010000000100B5
:1004400001000100010001000100010001000100A4
:100450000100010001000100010001000000010095
:100460000000000000000000010001000100010088
:100470000100010001000100010001000100010074
:100480000000010001000000A900000001000100BF
:100490000100000000000000010000000000010059
:1004A000010000000100000001000100AA0001009D
:1004B0000100000001000100010001000100010035
:1004C0000100010000000100010001000100010025
:1004D0000100010001000100010001000100010014
:1004E0000100010001000100010001000100010004
:1004F00001000100010001000100010001000100F4
:10050000005C010001000100010001000100010088
:1005100001000100000001000100010001000100D4
:1005200001000100010001000100010001000100C3
:1005300001000100000001000000000000000000B8
:1005400001000100010001000100010001000100A3
:100550000100010001000100000001000100000095
:10056000A9000000010001000100000000000000DF
:100570000100000000000100010000000100000077
:1005800001000100AA0001000100000001000100BB
:100590000100010001000100010001000000010054
:1005A0000100010001000100010001000100010043
:1005B0000100010001000100010001000100010033
:1005C0000100010001000100010001000100010023
:1005D0000100010001000100005C010001000100B8
:1005E0000100010001000100010001000000010004
:1005F00001000100010001000100010001000100F3
:1006000001000100010001000100010000000100E3
:1006100000000000000000000100010001000100D6
:1006200001000100010001000100010001000100C2
:100630000000010001000000A9000000010001000D
:1006400001000000000000000100000000000100A7
:10065000010000000100000001000100AA000100EB
:1006600005010980A101850319012AB7001501269A
:10067000B700950175108100C0050C0901A1018525
:100680000419012AA002150126A002950175108106
:1006900000C00660FF0961A1010962150026FF0084
:1006A0009520750881020963150026FF00952075C5
:1006B000089102C005010906A101050719E029E713
:1006C00015002501950875018102950175088103C2
:1006D0000507190029FF150026FF009506750881FA
:1006E0000005081901290595057501910295017507
:1006F000039103C01C037600690061006C003A009E
:10070000660036003400630032006200330063008C
:10071000000014034D0059005300540045005200DE
:10072000490055004D000000200363006F00730076
:1007300065007900660061006E006E00690074005B
:1007400075007400740069000000040309040902C4
:100750005B00030100A0FA0904000001030101008D
:100760000921010100012240000705810308000161
:100770000904010002030000000921010100012217
:10078000220007058403080001070504030800018F
:1007900009040200010300000009210101000122F7
:1007A0003200070583030800011201100100000058
:1007B00008626B6987150101020301000000000057
:1007C0000000000000000000000000000000000029
:1007D0000000000000000000000000000000007E9B
:1007E0000F00D4FFFFFFC7000000780000000000EA
:1007F0000000002A2B28000000000000000000007C
:1008000000000000000029000000002C1E34202100
:100810002224342627252E362D3738271E1F202147
:1008200022232425263333362E37381F04050607A6
:1008300008090A0B0C0D0E0F1011121314151617C0
:1008400018191A1B1C1D2F3130232D3504050607DE
:1008500008090A0B0C0D0E0F1011121314151617A0
:1008600018191A1B1C1D2F3130354C0011241FBEC6
:10087000CFE5D8E0DEBFCDBF22E0A0EDB0E001C003
:100880001D92A03CB207E1F710E0A0E6B0E0EEE573
:10089000F2E402C005900D92A03DB107D9F70E9485
:1008A0007C1A0C9413210C940000A82FB92F80E01F
:1008B00090E041E050EA609530E009C02D91822738
:1008C0009795879510F084279527305EC8F36F5F62
:1008D000A8F30895EADF8D939D930895CF93CFB742
:1008E000CF93DF93C395839BE9F7839B10C0839BD2
:1008F0000EC0839B0CC0839B0AC0839B08C0839B54
:1009000006C0C0919A02C395C0939A028EC06F939D
:10091000C0919902DD27C256DD4F2F9365E5839B79
:1009200003C02F916F91E1CF0F931F934F9320E05E
:1009300040E15F9300B30C7003FB27F93F9350E055
:100940003BE039C01C7040642F77012F5F5F1EC0F1
:10095000406810B31C702F7752501FC0406400B322
:100960002F770C70D1F15F5F00C023C0406210B3DD
:100970002F771C7091F15F5F00C025C00C701027AD
:10098000515012F45D5F0000115027952C3F10B3B9
:10099000C8F61C700127015027952C3FC8F6422746
:1009A000499300B30C7010274F73115027952C3FBB
:1009B000A8F64695469510B31C7079F001270150B2
:1009C00027952C3F98F66B5A60F3315000B3B0F680
:1009D00000C010E81ABF00271CC03B503195C31B54
:1009E000D04010E81ABF0881033C21F10B3411F10B
:1009F000209197021981110F1213EDCF4A81441FE4
:100A0000093679F10D3211F0013E29F74F7009F0E6
:100A1000042F00939D023F915F914F911F910F9181
:100A20002F916F91CAB7C7FD5DCFDF91CF91CFBF37
:100A3000CF91189520919D02222369F310919B027A
:100A4000112309F049C034300AF448C030939B02A6
:100A500020939802109199023BE0311B3093990248
:100A60003DC000919B020130BCF50AE54F7049F48E
:100A700030916D0034FD33C000936D00C4E7D2E0C7
:100A800032C0433059F0443091F030917F0234FD50
:100A900026C000937F02C0E8D2E025C03091B402A6
:100AA00034FD1DC00093B402C5EBD2E01CC03091F0
:100AB0008B0234FD14C000938B02CCE8D2E013C04B
:100AC000052710E000C0000002BB1AC0052710E097
:100AD000221F1DC010E021C04AE502C032ED432FA5
:100AE000C4E1D0E032E011B31C60939A02B311BBB1
:100AF0005CE020E865E320FF052702BB27951795FA
:100B00001C3FF0F66695B8F7B1F720FF052702BB4A
:100B1000279517951C3FD0F62795179517FF0527A2
:100B200000001C3F02BBB0F629913A9519F7037FEC
:100B300010919C02110FC651D04002BB11F01093CE
:100B4000970210E81ABF086011B3137F402F437F4C
:100B500054E05A95F1F702BB11BB42BB5CCFFC01DC
:100B60008381833089F130F48130F1F0823021F1DA
:100B700080E00895813209F450C08232C9F724819F
:100B800035812130310509F466C02115310509F49C
:100B90005AC02230310561F780E696E090934F020B
:100BA00080934E0282E3089589EA97E090934F0282
:100BB00080934E0282E108958EE497E090934F0275
:100BC00080934E028BE5089582818130B1F08823B5
:100BD00061F08230D1F0833059F684EF96E0909343
:100BE0004F0280934E028CE108958AE497E090933F
:100BF0004F0280934E0284E0089588E297E090933C
:100C00004F0280934E0280E2089582E197E0909334
:100C10004F0280934E0284E108958281813081F0F9
:100C2000882331F0823009F0A3CF89E997E002C030
:100C300080E697E090934F0280934E0289E00895FA
:100C400089E797E0F7CF84EB96E090934F0280938B
:100C50004E0280E4089522E936E030934F0220935B
:100C60004E0208950895089580914902089588E1FB
:100C700098E00FB6F894A89581BD0FBE91BDA895D8
:100C8000F894D8E0CEE528E3299320E0299314BE18
:100C9000FFCF08959C014FB7F8948091B2019091D5
:100CA000B301A091B401B091B5014FBF821B930B6A
:100CB00008952FB7F8946091B2017091B3018091BB
:100CC000B4019091B5012FBF08952FB7F89480918A
:100CD000B2019091B301A091B401B091B5012FBFC1
:100CE00008952091B0013091B1012817390771F0B2
:100CF0009093B1018093B001E091AE01F091AF010A
:100D0000309721F00084F185E02D09950895209118
:100D1000AC013091AD012817390771F09093AD0106
:100D20008093AC01E091AE01F091AF01309721F0DA
:100D30000680F781E02D09950895E091AE01F091CC
:100D4000AF01309729F00190F081E02D09950895C9
:100D500080E0089580E00895F894E82FE295EF7020
:100D6000F0E031A9282F2F7081E090E001C0880FBA
:100D70002A95EAF7982F9095932391AB92A9892B06
:100D800082AB789408959091650192FF06C0282F58
:100D900028712830F9F4877F846093FF06C0282FDC
:100DA00028712831F1F4877E84612091660120FF4B
:100DB00006C0382F38713830D9F4877F816021FF21
:100DC00006C0282F28712831D1F4877E816194FDD7
:100DD000877E0895282F24712430F9F68B7F886050
:100DE000DCCF282F2471243101F78B7E8861DDCF81
:100DF000382F3171313019F78E7F8860E0CF282F7E
:100E00002171213121F78E7E8861E1CFCF93DF936D
:100E1000EC0182389105B1F108F040C081339105B1
:100E200009F49DC048F58932910509F48DC08A976F
:100E300009F49CC0C11522E5D20708F0BDC0C11558
:100E400031E5D30708F025C1C83ED10508F0A3C09D
:100E5000C13ED10588F5C83AD10508F08EC0C53A23
:100E6000D10508F0F6C0C130D10531F1209721F14C
:100E7000C430D10508F545C08533910509F45FC03C
:100E8000C997C1F680916501837009F037C18091DF
:100E9000660183FF11C0C9E2D0E00EC0833E910518
:100EA00099F170F4803E910501F1823E910511F6B1
:100EB0008091650182FD21C0CE01DF91CF9108951F
:100EC000863E910561F1873E910571F1843E910561
:100ED00009F0B0CF8091660181FFEECF809165016E
:100EE000C7EED0E084FD0DC0E7CF8091650180FDA5
:100EF00033C09091660190FFDFCFC3EED0E084FF56
:100F0000DBCFD0E0C0E0D8CF8091650182FDF3C097
:100F10009091660190FDF2C084FFCECFF2CF809118
:100F2000650183FDDDCFC8CF8091650183FDE9C0F8
:100F30009091660191FFF0CFC4EED0E0BDCF8091DB
:100F4000650185FFB9CFA7CF8091650185FDDCC024
:100F50008091660183FFB0CFC9E3D0E0ADCF80912F
:100F6000650186FFA9CFCAE2D0E0A6CF80916501D6
:100F700086FFA2CFC1E3D0E09FCFCF3BD10508F6DB
:100F8000C85AD0E0CC0FDD1FC758DF4F0990D88179
:100F9000C02DD46491CFC11540E5D40708F064C0DA
:100FA000C11580E4D80708F05CC0CE019A95811580
:100FB0009F4108F481CFA5CFC11536E5D30718F5B9
:100FC000C11545E5D40708F07DC0C11584E5D807F3
:100FD00008F073C09C2F969596959E012370332739
:100FE000C115D34508F45AC0C1E0D0E002C0CC0F0F
:100FF000DD1F2A95E2F730E2939FC0011124C82B30
:10100000D92BDA6859CFC1158AE5D80778F4C1150C
:1010100029E5D20708F061C0C11538E5D30708F407
:1010200070CFDC2FCC27C06FD06A46CFCE01905650
:101030008115904208F065CF8D2F8F710E94C306F5
:1010400090E0982F882788279F719C012C2BE9011D
:1010500042C0C55AD0E0CA58DF4FC881D0E0D06442
:101060002BCFDF70D06A28CF2C2F269526952370A2
:1010700080E2289F900111248C2F8370C1E0D0E082
:1010800002C0CC0FDD1F8A95E2F7C22BD32BDD689F
:1010900013CFDC2FCC27C16FD06A0ECFC1E0D0E0D8
:1010A00002C0CC0FDD1F2A95E2F720E2929FC0011B
:1010B0001124C82BD92BDC68FFCEDC2FCC27C46FC2
:1010C000D06AFACE8C2F0E94C306C82FD0E0DC2F46
:1010D000CC27CC27DF71D062EFCE8C2F8F700E948F
:1010E000C30634E0D695C7953A95E1F7CF709C2FAB
:1010F000EC01D069E1CEC2EED0E0DECEC0EED0E0B1
:10110000DBCEC6EED0E0D8CEC5E3D0E0D5CE809120
:101110004801882331F01092480110924701109243
:10112000460108958095909145019823909345013B
:1011300008958091450190914401892B8093D200BC
:1011400080914801882319F10E946506209146018B
:1011500030914701821B930B8838934110F00E9415
:1011600087088091D20090914801892B8093D2000A
:1011700020E084ED90E0FC013191CF0131112F5F2F
:10118000F0E08A3D9F07B9F721110E948708E0919E
:10119000AE01F091AF01309731F00280F381E02D84
:1011A00082ED90E00995089510924301109242015A
:1011B000109241010895E4EDF0E09191891303C08C
:1011C000DF0111971C9290E0EA3DF907B1F708950D
:1011D000A4EDB0E0EFEF90E02D91821751F0EF3FDA
:1011E00019F4211101C0E92F9F5F9630A9F7EF3F55
:1011F00009F408950E2E000CFF0BEE52FF4F828370
:1012000008958091400190910F01981301C00895B5
:101210008F5F8770FACFA82FA77023E096958795E8
:101220002A95E1F7FC01EE0FFF1FE80FF91FE60F0B
:10123000F71F50E040E080E0219130E00A2E02C02C
:10124000369527950A94E2F721703327042E01C0C2
:10125000220F0A94EAF7822B4F5F5F4F433051050C
:1012600059F70895903FC9F0963080F48231A8F480
:10127000282F30E06FED70E0A901E2E19E9F400D64
:10128000511D1124CA010E940B0908959C5F9230E0
:1012900020F46CED70E090E0F6CF80E00895262F0A
:1012A000277091E001C0990F2A95EAF723E076951F
:1012B00067952A95E1F7FB01EE0FFF1FE60FF71F79
:1012C000E40FF51F50E040E0682F70E08191DF01EE
:1012D00011979B01042E02C0369527950A94E2F7D8
:1012E000217021952827292328272C934F5F5F4FB2
:1012F0004330510559F70895282F862F903F79F0F4
:10130000963070F4223158F4622F70E022E1929FFF
:10131000600D711D11244FED50E00E944F0908959A
:101320009C5F9230E0F7622F70E04CED50E0F5CF1B
:1013300090E080E00E94870690E080E00E947106C5
:10134000109244010E9499080895809373020E94AC
:101350009809089580917302982F9670963021F421
:1013600088600E94A5090895877FFBCF21E030E0C7
:1013700001C0220F8A95EAF720958091730282239B
:101380000E94A50908959091430180958923809337
:101390004301282F277091F4282F082E000C330BBF
:1013A0009217130659F09091660192FF07C0859538
:1013B000859585950E94B6090E94D408089521E07C
:1013C00030E001C0220F8A95EAF780917302822BE8
:1013D0000E94A50908959091660192FF10C098E0BF
:1013E000899F90011124622B609343010E94DF09C1
:1013F0000E946506909342018093410108950E94E6
:10140000DF090895809349010E949809089588236F
:1014100041F08095909144018923809344010E947A
:1014200099080895882339F090914401982B90935E
:1014300044010E9499080895882321F00E9492088F
:101440000E9499080895882339F090914501982BBE
:10145000909345010E9499080895882309F44DC08E
:10146000823879F40E949D0681FF47C089E30E947B
:10147000E8080E94990889E30E94DB080E94990805
:101480000895833859F40E949D0680FF36C083E595
:101490000E94E8080E94990883E5EECF843859F449
:1014A0000E949D0682FF29C087E40E94E8080E94EE
:1014B000990887E4E1CF9CEF980F913AE8F290E227
:1014C000980F983050F4877091E001C0990F8A9579
:1014D000EAF7892F0E949208D1CF9BE5980F9330AD
:1014E00028F490E080E00E9487060895885A8731AA
:1014F00020F490E080E00E94710608959C013A95E6
:1015000021153F4150F5FC01EE27F170BC01662723
:101510007270AC01442754709C012227387094FFEC
:101520000EC080E1EF2B09F480E0672B09F08062A8
:10153000452B09F08064232B89F08068089581E0B1
:10154000EF2B09F480E0672B09F08260452B09F04E
:101550008460232B19F08860089580E00895CF936C
:10156000C82F8823C9F08238C9F40E949D0681FDE6
:1015700013C089E30E94E8080E9499082FEF87EEC4
:1015800093E0215080409040E1F700C0000089E3E3
:101590000E94DB080E949908CF9108958338A1F436
:1015A0000E949D0680FDF8CF83E50E94E8080E9416
:1015B00099082FEF81EE94E0215080409040E1F7B0
:1015C00000C0000083E5E4CF8438A1F40E949D06AA
:1015D00082FDE2CF87E40E94E8080E9499082FEF7D
:1015E00081EE94E0215080409040E1F700C000007F
:1015F00087E4CECF8CEF8C0F813A68F4E4EDF0E015
:101600008191C817A1F120E0EA3DF207C9F78C2FBC
:101610000E94E808BFCF80E28C0F883068F4C77062
:1016200021E030E001C0220FCA95EAF78091450120
:10163000822B80934501AECFEBE5EC0FE33040F415
:10164000F0E0EA58FF4F808190E00E948706A4CF27
:10165000C85AC73108F0A0CFEC2FF0E0EE0FFF1F03
:10166000E758FF4F808191810E94710695CF8C2FA2
:101670000E94DB080E949908CACF1F93CF93DF9383
:10168000182FD0E0C0E0893311F4C0E5D0E0812FFD
:101690000E94AF0A209739F4812F0E942D0ADF9112
:1016A000CF911F9108958FE99FE00197F1F700C056
:1016B00000002197EFCF0F931F93CF93DF93C62F97
:1016C000D42F022FFC0182818823A9F0609372023B
:1016D0000E9465069093710280937002C77081E04A
:1016E00001C0880FCA95EAF70E94230ADF91CF91C3
:1016F0001F910F91089580917202681332C08091FA
:101700007002909171020E944A06883C910548F54A
:1017100010E21D0FCD17B9F080E28C0F883040F435
:10172000C77081E001C0880FCA95EAF70E941C0AC1
:10173000183048F481E09D2F977001C0880F9A956A
:10174000EAF70E94230A802F0E943D0B183070F6A2
:10175000D77081E001C0880FDA95EAF70E941C0A71
:10176000C5CFC77081E001C0880FCA95EAF7F6CFF0
:10177000B0E0A0E0EEEBFBE00C947220EC018AE01C
:10178000A82E2881222309F48FC02130C9F5998120
:101790008A81913021F422960E943D0B05C092303F
:1017A00029F422960E94AF0A2196EBCF933021F4C0
:1017B00022960E942D0AF8CF943011F02196F4CF92
:1017C000229630E020E0AE014F5F5F4F8053990BCF
:1017D0008A30910550F02150310930F38FE99FE0B4
:1017E0000197F1F700C00000F6CFA29EB001A39EC2
:1017F000700D11249C01260F371F8981EA01E3CF68
:10180000E22FF0E0E551F84FB490822F869586954F
:10181000869590E0FC01E552F84FE4902770F12C9A
:10182000022E02C0F594E7940A94E2F731E0E32235
:10183000FF24FC01E553F84FC490D12C022E02C0C6
:10184000D594C7940A94E2F731E0C322DD24FC0169
:10185000E554F84F049110E002C0159507952A95BC
:10186000E2F701701127E114F10419F081EE0E94F2
:10187000AF0AC114D10419F086EE0E94AF0A8B2D75
:101880000E943D0BC114D10419F086EE0E942D0A6E
:10189000E114F10419F081EE0E942D0A01151105E1
:1018A00009F482CF8CE278CFCDB7DEB7EAE00C94B2
:1018B0008E20CF93DF9380919B02835087FD14C0CD
:1018C00090919902CCE0D0E0C91BD109C256DD4FFE
:1018D00090919802903108F06BC0883009F453C0A1
:1018E00010923E0210929B0280916D0084FF3EC0D8
:1018F00080916C008F3FD1F1C82F893008F0C8E08B
:10190000982F9C1B90936C009091740228E892276A
:10191000909374028823E9F080914E0290914F02D7
:1019200020914D0226FF06C1FC012C2FA5E7B2E055
:1019300034913D9331962150D9F79C012F5F3F4F51
:101940008FEF8C0F820F932F911D90934F028093F6
:101950004E026C2F85E792E00E946A04CC5FCC3087
:1019600019F08FEF80936C00C0936D0084E190B309
:101970009C7031F48150D9F710929C02109297021A
:10198000DF91CF91089580913E02893108F0A8CF70
:10199000E82FF0E0E05BFD4F9E01285F3F4F9991FB
:1019A00091932C173D07D9F7885F80933E029ACF19
:1019B0009D3209F0A3C0883009F094CF83EC809366
:1019C00074028AE580936D0010924D0288818076C2
:1019D00009F447C0803229F58981813099F48C81DE
:1019E0009D81892BF1F480E492E090934F028093E3
:1019F0004E0288E09F81911131C09E81981770F549
:101A0000892F2CC0823041F48FE392E090934F02F3
:101A100080934E0281E0EECF8A3029F48B8180934F
:101A20003F0280E0E7CF8930E1F78A819B81811511
:101A3000924069F48C819D81892B49F481E08093E7
:101A40004C028E819F8190934B0280934A02888141
:101A500087FF52C08E8190E890934D0280936C0076
:101A600041CF2A8110927D02998191110AC0109272
:101A70007E022DE732E082E030934F0220934E0247
:101A8000B9CF953029F420939C022DE732E0F4CFB2
:101A90009630C1F49B81913049F4CE010E94AF058C
:101AA00090E490934D028F3F91F2A4CF9230A9F32E
:101AB000933099F3913289F3923279F390E49093D1
:101AC0004D0298CF983089F0993019F4209348024C
:101AD000DCCF9A3071F09B30C1F69BE4909380028A
:101AE0009093B50290938C02D0CF28E432E081E04D
:101AF000C3CF2DE732E0FBCF8FEFADCF80914D020A
:101B000087FFF0CE80914A0290914B02892B71F0B1
:101B100080914C02813051F4888180934902109267
:101B20004B0210924A0210926C00DCCE8EE1809340
:101B30006D00D8CEDC012C2FE5E7F2E03D9131932A
:101B40002150E1F7FACE1F93CF93DF93E82F792F3F
:101B5000162FEA01888184FF1CC0298188E8282784
:101B60002983CE010296DC012E2F372F512F5E0FD5
:101B7000F90121912D939F01452F4E1B1416C4F39B
:101B8000612F0E946A041C5F1883DF91CF911F911F
:101B900008958AE58883E5CFCF93DF93C0E5D2E04F
:101BA00080918B0284FF19C04BE852E068E0CE01BF
:101BB0000E94A30D289682E0C037D80789F780914C
:101BC0008B0284FF0DC04BE852E060E090E080E0C3
:101BD0000E94A30DDF91CF9108950E94590CE0CF90
:101BE0000E94590CECCF90913D02981307C02091B0
:101BF0003B0230913C0226173707B9F080933D0233
:101C000070933C0260933B028093380270933A02D7
:101C1000609339028091B40284FF07C044EB52E024
:101C200063E088E392E00E94A30D0895BC0184E084
:101C30000E94F30D0895BC0183E00E94F30D089506
:101C4000CF93DF93CAE0D0E080917F0284FF1CC075
:101C50008091360290913702981799F028E0829F80
:101C6000C00111244FE752E068E08A549E4F0E9461
:101C7000A30D8091360290E001968F709927809392
:101C80003602DF91CF9108950E94590C8FE99FE0B1
:101C90000197F1F700C000002197B1F6F2CFCF9382
:101CA000DF93EC01A0913702B0E0CD0101968F7077
:101CB000992720913602281779F093E0AA0FBB1FCD
:101CC0009A95E1F7AA54BE4F98E0FE0101900D925B
:101CD0009A95E1F7809337020E94590C0E94200EDA
:101CE00088E0FE01A0E4B2E001900D928A95E1F750
:101CF000DF91CF910895CF93DF93C7E9D3E060E000
:101D0000CE010E94E0202196C11584E0D807B9F7E2
:101D1000DF91CF9108950F931F93CF93DF93142FEB
:101D2000022F8430F0F461111CC094E0899FE0011F
:101D30001124C957DC4F82E090E0442311F090E079
:101D400080E0632F8C0F9D1F0E94E02083E090E0D5
:101D5000112311F081E090E0602F8C0F9D1F0E94F5
:101D6000E020DF91CF911F910F9108951F93CF93A2
:101D7000DF93122F8430E0F46630D0F44231C0F4A7
:101D8000C42FD0E0CC0FDD1F94E2699FC00DD11DA0
:101D9000112498ED899FC00DD11D1124632FCE0110
:101DA00087960E94E020612FCE0188960E94E02055
:101DB000DF91CF911F910895B0E0A0E0E2EEFEE048
:101DC0000C946D208090A6019090A70181E090E096
:101DD0009093A7018093A60180EFE82E82E0F82E71
:101DE00092EFC92E92E0D92E00E013E0712CE801A9
:101DF000612C14C0F50125913491452D662D872D58
:101E00000E94B60E82E0A80EB11C539482E15812D3
:101E1000F1CFA496639486E0681619F05E01512C08
:101E2000E9CFF7012591349141E060E0872D0E94D0
:101E30008B0EF6012591349140E060E0872D0E94E1
:101E40008B0E84E0E80EF11C739484E0C80ED11C64
:101E500008521F4F84E07812CACF9092A701809257
:101E6000A601CDB7DEB7EFE00C948920CF93C82F41
:101E70006FEF811168E683E290E00E94E0206FEF4F
:101E8000C11164E684E290E00E94E0206FEFC1118E
:101E900069E385E290E00E94E020CF91089580E020
:101EA0000E94360F60E086E290E00E94E0200E94EF
:101EB000DC0E0E947B0E81E00E94360F0895CF93C6
:101EC000C0916601C2FB992790F9981791F080FBA9
:101ED000C2F9C09366016091650184E090E00E94C0
:101EE000E0206C2F82E290E00E94E02082E00E94DD
:101EF000C309CF910895FF920F931F93CF93DF9360
:101F0000F42E843040F5611126C024E0829F8001C8
:101F1000112409571C4F82E090E0442311F090E017
:101F200080E0800F911F0E94D220C82FD0E0DC2FCC
:101F3000CC2783E090E0FF2011F081E090E0800F5B
:101F4000911F0E94D2209E01282BC901CDB7DEB778
:101F5000E5E00C94932090E080E0F8CF0F931F937E
:101F6000CF93DF93843030F5663020F5423110F5A1
:101F7000C42FD0E0CC0FDD1F24E2629FC00DD11D25
:101F8000112438ED839FC00DD11D1124CE018796F9
:101F90000E94D220082F10E0102F0027CE01889633
:101FA0000E94D2209801282BC901DF91CF911F9167
:101FB0000F91089590E080E0F8CF462F672F209191
:101FC000AA013091AB01232BF9F4703F39F4403F63
:101FD000D9F48091A8019091A90108958430A0F4CA
:101FE000763028F4423180F40E94AE0F08957D3F90
:101FF00039F4411109C041E060E00E947B0F08956F
:102000007C3F11F44423C1F390E080E00895CF9227
:10201000DF92FF920F931F93CF93DF936C01009198
:10202000730280914901082BC7E0D0E010E0FC2E3C
:10203000C8010C2E02C0959587950A94E2F780FDA1
:102040000CC02197A0F7F12C8F2DDF91CF911F911C
:102050000F91FF90DF90CF900895B6018C2F0E94D2
:10206000DD0F0E940607019761F3EECFCF93DF9358
:10207000EC010E940710BE010E94DD0F0E940607BE
:10208000DF91CF910895FC0183819481892B29F000
:102090008081918189238F3F51F480E00895843FAE
:1020A000E1F717C0883EA8F0813FB9F712C08081E0
:1020B00091810E94361092959F70963099F358F452
:1020C000925F9F70923048F7803F19F040F7883E4A
:1020D00020F781E008959A5FF4CF83E290E00E94B8
:1020E000D220883689F484E290E00E94D22084369F
:1020F00059F485E290E00E94D22091E0893309F002
:1021000090E0892F8170089580E0FCCFCF9384E028
:1021100090E00E94D220C82F82E290E00E94D2205C
:10212000982F8C2FCF91089510924501E4EDF0E0A7
:1021300086E0DF011D928A95E9F70E9498090895CB
:102140000E9494102FEF84E39CE021508040904047
:10215000E1F700C0000088E198E00FB6F894A89578
:1021600081BD0FBE91BDFFCF4F925F926F927F9264
:10217000AF92BF92CF92DF92EF92FF920F931F9395
:10218000CF93DF93CDB7DEB768970FB6F894DEBF75
:102190000FBECDBF8E010F5F1F4F88E1F801119276
:1021A0008A95E9F797EAE92E90E0F92E6801AA24CA
:1021B000A394B12CF70181917F018F3F09F452C0A4
:1021C000F894E82FE295EF70F0E021A98F70A50157
:1021D00002C0440F551F8A95E2F7CA01922F982B2F
:1021E00091AB92A98095892382AB789400C0EDEAE7
:1021F000F0E041E050E060E070E0412C512C320111
:1022000081918F3F89F0A82FA295AF70B0E0D09652
:102210002C9130E08F7002C0359527958A95E2F7B2
:10222000DB01CA0120FF03C080E090E0DC01482A06
:10223000592A6A2A7B2A440F551F661F771F80E0A0
:10224000EF3BF807E9F6F701319780818F3F11F0F6
:102250000E94AC06E0EAEA95F1F7F601408251826D
:1022600062827382F4E0CF0ED11C4DEAE41640E0A6
:10227000F40609F09FCF48E150E0B8018DE491E009
:102280000E94BE20892B81F188E1F801ADE4B1E024
:1022900001900D928A95E1F781E080934C010E94B4
:1022A000650690934B0180934A0180914A01909179
:1022B0004B010E944A060597D8F048E150E06DE4D2
:1022C00071E08BE891E00E94BE20892B39F188E112
:1022D000EDE4F1E0ABE8B1E001900D928A95E1F711
:1022E00081E010924C0105C080914C018111DDCF3D
:1022F00080E068960FB6F894DEBF0FBECDBFDF91C9
:10230000CF911F910F91FF90EF90DF90CF90BF90F2
:10231000AF907F906F905F904F90089580E0E1CFF5
:1023200068EE7EEF90E080E00E94FD2060E082E0B9
:1023300090E00E94E02060E083E090E00E94E020D6
:102340001092490160E084E090E00E94E02064E0A7
:1023500082E290E00E94E02060E085E090E00E9450
:10236000E02060E086E090E00E94E0206FEF87E0F0
:1023700090E00E94E02040E050E0BA0188E090E068
:102380000E94F12060E08DE090E00E94E02040E0BB
:1023900050E0BA0188E190E00E94F12060E087E11E
:1023A00090E00E94E02040E050E0BA018CE190E033
:1023B0000E94F12070E060E080E290E00E94FD2049
:1023C00040E050E0BA0188E190E00E94F12080E016
:1023D0000E94360F0E944F0F40E050E0BA018FE09C
:1023E00090E00E94F12040E050E0BA0183E190E0EB
:1023F0000E94F1200895A5E0B0E0E1E0F2E10C9444
:1024000070206C01FC0183819481892B31F08081E3
:10241000918189238F3F09F03FC52596ECE00C940C
:102420008C200E940710182F682F89819A810E94A2
:102430007C0969817A81812F0E94DD0F8C01F60170
:102440008281882309F41DC5980122513F4520311E
:10245000310508F0EFC48FEF93E00E94D220811184
:10246000A6C0025157E9E52E53E0F52E011135C003
:1024700019821A821B821C8299249A9487010F5F09
:102480001F4FC7010E94D22089831A82882309F432
:102490008EC0813009F080C0570132E0A30EB11C1C
:1024A000C8010E94D220082F8A83882309F47FC0A4
:1024B000C5010E94D220182F8FEF800F8330E0F4E7
:1024C000570143E0A40EB11C1B83112321F0CE0160
:1024D00001960E94B80B7501D1CFE114F4E0FF061C
:1024E00009F465C0C7010E94D220811101C00150CA
:1024F0002FEFE21AF20ABACF8BEF800F833038F554
:10250000C70103961B835C01112329F3570154E093
:10251000A50EB11C0E94D2208C838823E1F2EB80AF
:10252000FC8081E0E8168FEFF80610F0FE2CEE2418
:10253000063049F0073019F0C7010E941F1AC70181
:102540000E94E719C8CFC7010E941F1AC4CF0430E8
:1025500011F6570194E0A90EB11CC70103960E9421
:10256000D220112321F1882311F18150990B989EDB
:102570009001999E300D1124E12FE150FF0BCF0106
:10258000820F931F019708F4A6CFEFE9FFE0319780
:10259000F1F700C00000F6CFCE0101960E94B80B03
:1025A000580199CF81E00E94DF090E94AA09809119
:1025B0004301877009F431CFF6018281882309F441
:1025C0002CCF8091660182FF28CF82E00E94C30950
:1025D00024CF81E00E94B609E8CF82E0E4CF053F36
:1025E000ECE51E0709F461C008F45BC0063F2CE56A
:1025F000120709F45EC0882309F45FC410927202C6
:1026000003303DE5130708F05BC00A3F4CE51407B3
:1026100030F4C80182509C45449708F05CC00E9489
:10262000861090936601809365010231ECE51E07E8
:1026300009F45AC108F0A6C009302CE5120709F4C4
:102640002DC108F075C005304CE5140709F41AC116
:1026500008F05CC003308CE5180709F40BC108F0E2
:102660000DC18091650181600230ECE51E0709F41F
:1026700086C0609165011091660184E090E00E943F
:10268000E020612F82E290E00E94E0200E949410FE
:102690008ECF27E245EE65EEF0C326E241EE60EE16
:1026A000ECC327E245EE64EEE8C326E241EE62EEBB
:1026B000E4C327E245EE66EEE0C328E241E0EBCF5B
:1026C000053A5DE5150709F4AACFD0F401369DE57A
:1026D000190709F4A4CF0631ECE51E0709F0FAC387
:1026E000809145018A7A91E009F490E09093DA00B4
:1026F000811124C189E20E94E8080E94990857CFFD
:10270000C8018D5A9D45039730F789CF80916501A7
:1027100080620730FCE51F0791F1809165018061BF
:1027200008302CE5120758F180916501806427C0BC
:102730000D303CE5130709F4BFC068F480916501D2
:102740008E7F0B305CE51507D1F008F4ADC08091A9
:1027500065018D7F14C00F309CE5190709F4BCC0DA
:1027600008F4AEC00031FCE51F0709F4B9C0809140
:1027700065018F7B01312CE5120709F07ACF809338
:10278000650177CF0F3F3CE5130709F4B7C0A8F503
:102790000A3F5CE5150709F479C0C0F404319CE5F3
:1027A000190709F4B9C008F4A5C00531FCE51F07F5
:1027B00009F05FCF8091650182FB992790F921E0B4
:1027C000922790FB82F990FB83F9D9CF0C3F2CE53F
:1027D000120709F479C008F45DC00D3F4CE51407F9
:1027E00009F476C08091660183600E3F5CE51507B1
:1027F00009F03FCF809366013CCF01368DE5180785
:1028000009F495C090F40130EDE51E0709F48DC080
:1028100008F478C060E002302DE5120709F029CFF6
:102820008EE090E00E94E02024CF0D3A3DE51307B2
:10283000E9F060F490916501892F8E7F90FF8160AF
:10284000053A5DE5150709F49ACF13CF0E3A8DE5E9
:10285000180771F10F3A9DE5190709F00ACF909119
:102860006601892F877F93FF8860C4CF80916601BE
:102870008860C0CF80916501826081CF80916501C1
:1028800084607DCF80916501886079CF80916601F9
:102890008160B0CF809166018260ACCF0E949410BD
:1028A0008091650180686BCF809165018C6067CFF6
:1028B00080916601877F9ECF809165018B7F5FCF7E
:1028C00080916501877F5BCF809166018E7F92CF7B
:1028D000809166018D7F8ECF809165018F7E4FCF75
:1028E000809165018F7D4BCF0E949410809165018E
:1028F0008F7745CF80916501837F41CF80916601BD
:102900008C7F78CF80916601982F909591708E7F03
:10291000892B90FB81F96ECF0E94941090916501F4
:10292000892F97FB87F980582ACF61E079CF909162
:102930006501892F8F7E94FF806121CF85E3DBCEF7
:1029400085E3C5C20E949410FFEF24E33CE0F15000
:1029500020403040E1F700C000000E94370627CE3B
:102960008091660182FB882780F991E089270E9487
:102970005F0FF601828100811181882309F445C02F
:10298000C8010E940710F82E682FC8010E947C0918
:10299000B8018F2D0E94DD0F0E9406078C01882E42
:1029A000F601E280B580B2943FE0B322809143010A
:1029B0008770C1F0AE2CEE20B1F0812F807F803483
:1029C00021F080E2800F883068F08091660182FFFC
:1029D00009C082E00E94C309809143018770AA2444
:1029E000A3948111A12C912E92942FE09222FBE0CE
:1029F000F91508F476C0E92DF0E0EB5EFE4D0C947D
:102A00005D2081E0B4CF80E0B2CFC8010E943209DE
:102A1000F82EBECF212F2F70F22E107F19F0F294D6
:102A200090EFF922EE20B9F0FF2069F080E2800FEC
:102A3000883010F0811009C080914501F82AF09289
:102A400045010E949908802F4AC080914401F82ACC
:102A5000F0924401F6CF802F0E942D0AFF2009F446
:102A600040C0005E083010F0811004C08F2D0E941D
:102A7000920806C0F09480914401F822F09244013B
:102A80000E9499082EC0312F3F70F32E107F103214
:102A900019F0F29480EFF822882089F041E0841642
:102AA00009F491C0EE2009F49AC0BB2009F467C074
:102AB000F601858180FFC7CF8F70858360C08091CC
:102AC000660182FD35C0EE2069F1FF2039F080916A
:102AD0004501F82AF09245010E94990880E00E9481
:102AE000AF0A292D2850330B2430310510F40E94F1
:102AF0009D06AA2009F491CC8091430180FD8DCCE4
:102B0000F60112828595859585950E94DF09C6019B
:102B10000E94FB11809143018595859585950E94C2
:102B2000B6097BCC80E00E942D0AFF20D1F29ECF17
:102B3000EE2049F1B11004C0809148018F2920C0D6
:102B400051E0B51210C082FFCCCF80914801F82A25
:102B5000F81639F20E94650690934701809346016A
:102B6000F0924801BECF85E0B812E6CF0E948708F8
:102B70009091DB008F2D892B89138093DB008F2DA3
:102B80000E94230AAECFB11003C00E94870812C072
:102B900091E0B91213C0809145018F2109F4A1CFB2
:102BA0000E9487089091DB008F2D809589238913DF
:102BB0008093DB008F2D0E941C0A93CFE5E0BE16A8
:102BC00009F48FCFE2CFEE2029F0F5E0FB1508F4F1
:102BD00088CFD5CF24E02B1508F483CFEBCFBB20D3
:102BE00049F3F9E38F1209C02FEF37EE43E021508C
:102BF00030404040E1F700C00000802F0E942D0AC5
:102C000070CF812F86958695837061F0813009F0B1
:102C100068CFC8019370E11002C090E080E00E948C
:102C200071065FCFC8019370E11002C090E080E0B0
:102C30000E94870656CF812F837089F5E11051CF0E
:102C4000402F429546954770440F440F802F8F7058
:102C5000042E01C0880F0A94EAF7202F207104FF88
:102C600007C02FE030E001C0220F4A95EAF7209517
:102C7000169516951370123069F050F43091490191
:102C8000113029F0822B83230E94020A2ACF832B42
:102C9000822BFACF282B809149018227F5CF869588
:102CA000EE2011F0812F8170882309F41ACF402F74
:102CB000429546954770440F440F802F8F70042E25
:102CC00001C0880F0A94EAF7202F207104FF07C083
:102CD0002FE030E001C0220F4A95EAF720951695C3
:102CE00016951370123069F050F430917302113060
:102CF00029F0822B83230E94A509F3CE832B822BFC
:102D0000FACF282B809173028227F5CF1F70EE2017
:102D100029F0812F0E94DF09802F32CF802F0E945F
:102D20001C0A812F0E94B609DCCE802F52EF851637
:102D3000B1F1581570F090EF8916D1F0E1EF8E16D1
:102D400091F0EE2009F466C0B1107DCE812F8F7115
:102D50002AC0F3EF8F1651F124EF8212F2CF809147
:102D6000660182FD2FC0812F8F71EE20D9F21BC02A
:102D7000EE2081F034E03B1508F4B3CE1F7181E002
:102D800090E0012E01C0880F0A94EAF79091730237
:102D90008927B1CF45E04B1508F4A3CEEFCF812FA3
:102DA0008F71E110BFCF0E94DF099BCE80E0EE2043
:102DB00009F4A1CF1F7181E0012E01C0880F0A9490
:102DC000EAF799CFEE20C9F08091430187708430F3
:102DD00041F40E94D408812F8F710E94B609A12C62
:102DE00080CE54E05B15D8F31F71812F0E94DF095C
:102DF00063E0812F0E94EB09F2CF84E08B1530F461
:102E00000E94D40864E0812F8F71F4CF81E00E948A
:102E1000C309E5CFBB2059F0893309F0EECE9FEF0F
:102E2000E7EEF3E09150E040F040E1F7E4CE812F8F
:102E30008F7178CF0031FFE51F0709F4B3CB013163
:102E40002FE5120709F4C9CB033F2CE5120709F45B
:102E500024CC08F0C4CB083D4CE5140709F419CC88
:102E6000093D5CE5150709F428CC073D9CE51907E9
:102E700009F0C1CB26E241EE61EEC6010E945B0B78
:102E800096CB00313FE5130709F4A3CB01314FE5A1
:102E90001407D1F682E09ECB85E0DE011196019009
:102EA0000D928A95E1F7F601228189819A8121119B
:102EB000B8CA0E943209182FBCCA0631FCE51F07A8
:102EC00009F057CD8091DA0081113ACD89E20E9454
:102ED000DB0813CC0A352DE5120709F492CD68F40E
:102EE00001154CE5140709F42DCD0E3D1C4509F0E4
:102EF00040CD0E9490110E94A0100C358DE518075E
:102F000009F42ECD08F47FCD073A1D45A1F331CD4C
:102F10001F93CF93DF9380910E01807F09F049C00A
:102F200080910B01882309F444C080914001D09125
:102F30000F016091090170910A01A0910C01B091FB
:102F40000D01C62FC72316E0D81799F190E010970E
:102F500011F0CF3F19F401968770F6CF189F9001BA
:102F6000199F300D1124F901E05FFE4F4181471395
:102F7000F2CF40814613EFCF42814111ECCF438124
:102F800054814A1B5B0B483C510528F780910E0188
:102F90008F70806180930E01F901EB5EFE4F80819E
:102FA0008F708061808389E091E00E94FB110E9414
:102FB0000109DF91CF911F910895A1E1B0E0E3EE07
:102FC000F7E10C9472208C0185E0F801DE011D967A
:102FD00001900D928A95E1F7F801E28089E0A82E30
:102FE00081E0B82E60910C0170910D0161157105A1
:102FF00009F426C19091090140910A01892F842387
:103000008F3F09F41DC120813181C380D480F090AD
:103010000B01F601E61BF70BFF2009F4DCC08091E1
:103020000E01582F507FE83CF10508F09FC0511168
:103030006BC0FE2C431314C0921312C0E11010C0D9
:103040008F70806180930E01C5010E94FB118091F9
:103050000E01F80185838F2D6196EAE00C948E2095
:10306000C114D10429F0822F83238F3F09F003C1BB
:1030700080E0F82FF170DF2E80FF3CC0809140018E
:1030800040910F0156E0841315C02D873E878D8532
:103090009E850E943610292F22952F702230F0F045
:1030A000243018F59F70F1F0F8019581907FD1F4EC
:1030B000D12C1EC090E0589FF001599FF00D1124B3
:1030C000E05FFE4F6181361306C06081261303C0A6
:1030D0006281E6120FC001968770D5CF9F7011F004
:1030E000882331F3805E883018F3C8010E94FB11F9
:1030F000FD2CB1CFEE2009F4AECF80910E0181609E
:1031000080930E01F12CA7CF431306C0921304C085
:10311000F801EE2009F479C0C8010E944310882309
:1031200009F1EE20F9F080910E01803270F02091CB
:10313000090130910A0138872F831986DB86CA86F8
:103140008C87CE0107960E94FB1186E0F801A9E06A
:10315000B1E001900D928A95E1F70E948817FF2453
:10316000F39479CFC8010E94FB11F9CF51110AC025
:1031700089E091E00E94FB1186E0F50111928A95A9
:10318000E9F7C0CF43130FC092130DC0E1100BC07D
:10319000F8018583C8010E94FB1186E0F5011192B8
:1031A0008A95E9F758CFC8010E9443108823D1F2CD
:1031B000EE20C1F280910E01803238F22091090197
:1031C00030910A013A8329831B82DD82CC828E836F
:1031D000CE010196B8CFE83CF105F8F6FE2CEE20C2
:1031E00009F243131FC092131DC080910E0180FD90
:1031F00010C0982F907F69F0F8018583903F31F0DF
:10320000982F907F905F8F70892B8583C8010E94D3
:10321000FB1186E0F801A9E0B1E001900D928A95DA
:10322000E1F719CFC8010E94431081118ECF809120
:103230000E01816080930E01C8010E94FB110BCF2B
:10324000EE2009F48FCFC8010E944310F82E882386
:1032500009F488CF86E0F801A9E0B1E001900D9271
:103260008A95E1F78091090190910A010E94361038
:103270000E948817F0CE81E08E25FBCEA7E1B0E05A
:10328000E4E4F9E10C9479204B8B5C8B6D8B7E8BA5
:103290008F8B6111109244011A8A198A85E0FE0110
:1032A0007396DE011D9601900D928A95E1F780914B
:1032B000660182FF1CC00E94650620914101309189
:1032C0004201821B930B8838934120F08091430187
:1032D00082FF79C00E946506209146013091470126
:1032E000821B930B8838934110F00E94870886E078
:1032F000FE013D96DE01179601900D928A95E1F749
:10330000CE0107960E94DD17882359F016E08091C0
:10331000400190910F01891343C06796E3E00C943C
:10332000952086E0FE013796DE01119601900D9200
:103330008A95E1F78A859B85892B41F38F81988552
:1033400089238F3F19F320910F0130E0C9010196C5
:1033500087709927409140014817190671F40E941F
:10336000941010920F011092400186E0E9E0F1E024
:10337000DF011D928A95E9F7C9CF96E0929FD001AF
:10338000939FB00D1124A05FBE4FFE0131960190B6
:103390000D929A95E1F780930F010E940109B6CF33
:1033A000819FC0011124805F9E4F0E94DD178823FA
:1033B00009F4B3CF8091400190E00196877099277E
:1033C00080934001A4CF82E00E94C30983CFA5E08F
:1033D000B0E0EDEEF9E10C9478208C019093A90116
:1033E0008093A801011580E21807C0F4802F0E9485
:1033F0002D0AC8010E947E0A9801205E31092830FA
:10340000310518F00115110531F40E941C0A2596AA
:10341000E4E00C9494200E94070AF9CF80EF89839E
:103420008A831B820E9465068160782F9D838C832E
:1034300049815A816B818D810E943E19E8CFA5E0B8
:10344000B0E0E5E2FAE10C9478208C019093A901B8
:103450008093A801011580E21807C0F4C8010E94FA
:103460007E0A9801205E31092830310518F00115D7
:10347000110549F40E94230A802F0E94AF0A259665
:10348000E4E00C9494200E94120AF6CF80EF898326
:103490008A8381E08B830E9465068160782F9D83FB
:1034A0008C8349815A816B818D810E943E19E7CFBF
:1034B00078941F921FB61F9211248F939F93AF93FE
:1034C000BF938091B2019091B301A091B401B091EA
:1034D000B5010196A11DB11D8093B2019093B30176
:1034E000A093B401B093B501BF91AF919F918F911B
:1034F0001F901FBE1F901895CDB7DEB7AA970FB6C5
:10350000F894DEBF0FBECDBF84B7806884BF84B798
:10351000806884BF0E9465069093A5018093A401F2
:103520008AEA96E09093D1008093D00085B78860B6
:1035300085BF8BB780688BBF8BE4809380028093BC
:10354000B50280938C028AE580937F028093B40257
:1035500080938B028B9A80E0815009F0CAC08B98CF
:1035600078948BE083BF8AEF8CBF82E089BF0E9492
:103570006D10811102C00E944F0F07EA10E09DEA12
:10358000E92E90E0F92EF80181918F018F3F11F023
:103590000E94AC06E016F106B1F70DEA10E08FEBE1
:1035A000E82E80E0F82ED8018D918D018F3F11F02B
:1035B0000E94AC06E016F106B1F788E1EBE8F1E015
:1035C000DF01282F1D922A95E9F7EDE4F1E0DF01F4
:1035D0001D928A95E9F790E080E00E94DA20883E0B
:1035E0009E4F21F40E946D10811102C00E94901123
:1035F00082E090E00E94D220809369010E948610B0
:1036000090936601809365010E94B410EFE3FCE99A
:103610003197F1F700C000000E94B41080918B0137
:1036200080FF08C06FEF7FEF90E080E00E94FD20F8
:103630000E94370683E090E00E94D2200E94020A96
:1036400081E0809384018F98979AA598AD9A8FE82E
:1036500091E00197F1F700C000003091840145E846
:1036600051E0FA018E2F841B831708F44AC080E6CC
:1036700090E09093AF018093AE019FEFA0E7B2E09E
:103680009150A040B040E1F700C0000012E3212EAD
:10369000312C80919A021091A301882309F43FC034
:1036A00010929A020E9465069093A5018093A4014E
:1036B000112309F46CC41092A3010E9494100E947B
:1036C0009D068091A301882309F461C40E94B4106F
:1036D000EBE8F1E081919191A191B191892B8A2B35
:1036E0008B2B09F02FC423EA31E02E173F0791F707
:1036F000D0CFA895AFE9BFE01197F1F700C0000067
:103700002BCF80B390E0880F892F881F990B9D994C
:1037100004C020E0822B8193A5CF22E0FBCF1111C2
:10372000D5CF8091A4019091A5010E944A060697E9
:1037300008F42DC4E1E0E093A301C8CF04171507F6
:103740002607370709F04CC40E9465068C0180915A
:1037500067019091680108171907A1F08FEF8D8F0D
:103760008E8F1F8E0E9465068160782F99A388A393
:103770004D8D5E8D6F8D89A10E943E191093680159
:1037800000936701D12CC12C7DEFB72EECEFAE2E4C
:103790009DC0ED2CF12C80B390E0880F892F881FFD
:1037A000990B9D99D5C0E0E08E2BD701AB57BE4F4A
:1037B000EC919E2F9370891709F487C0EE0FEE0FDE
:1037C000E82BEC93EF70F0E0E154FF4F87010D57C9
:1037D0001E4F8081D8019C91890F8C9320E084300A
:1037E00094F1F701EE57FE4F80818F5F80830E9436
:1037F0006506DB8AAC8AB1E0BD8B8160782F9F8B38
:103800008E8B4D2D5CEF61E08F890E943E19EFE3B6
:10381000FFE13197F1F700C000000E946506D88EE5
:10382000A98E1A8E8160782F9C8F8B8F4D2D5CEF27
:1038300060E08C8D0E943E198FE39FE10197F1F7C4
:1038400000C0000021E0D8018C918D3F94F5F70174
:10385000EE57FE4F8081815080830E946506D98695
:10386000BA86B1E0BB878160782F9D878C874D2D0C
:103870005DEF61E08D850E943E19EFE3FFE1319736
:10388000F1F700C000000E946506DE86BF86188A38
:103890008160782F9A8B898B4D2D5DEF60E08A894E
:1038A0000E943E198FE39FE10197F1F700C00000ED
:1038B00021E0D8018C91082E000C990B64E070E097
:1038C0000E944920F8018083C22AD3948091840108
:1038D000D81608F45ECFC1100E9459060E949D06BA
:1038E00090918601891721F0809386010E945906E4
:1038F0000E94200E0E94590C80914802882309F4EE
:10390000C8CE80918B0284FFC4CE80913E0280326B
:1039100009F0BFCE0091AA011091AB018091500235
:1039200001151105B9F08E3F09F0A5C08091510233
:10393000833020F08550833008F09DC0E091510223
:10394000EE3008F098C0F0E0EF5DFE4D0C945D2085
:10395000E2E02ACF8C3009F4E1C060F5843009F44C
:10396000BAC060F4823009F470C008F0A0C08130A1
:1039700009F465C08FEF809350027DC0863009F452
:10398000CAC008F4B8C08B30A9F78091A601909105
:10399000A701892B09F46FC00E94CC0D2FEF31EEE7
:1039A00044E0215030404040E1F700C000000E9458
:1039B000370661C0803109F4E7C0A8F58E3009F4FC
:1039C000B5C008F4AFC08091A6019091A701892BE2
:1039D00009F451C0E0905302F12C3DE1E316F104EB
:1039E00008F049C00091510210915202102701279E
:1039F000102750E5C52E52E0D52EE00EF11EC8016D
:103A000089569C4F0E151F05B1F10936110528F492
:103A1000D60114966C910E94E020BFEFCB1ADB0A0E
:103A20000F5F1F4FECCF823109F4B3C008F4AFC071
:103A3000833109F4DCC08E3F09F09CCF7FCF109218
:103A4000510289E08093520216C080915102823067
:103A500009F492C28330A1F0813009F08BCF0E942B
:103A600059060E9463206093520270935302809320
:103A70005402909355020E94CC0D10923E0209CE42
:103A80008091A6019091A701892BA9F3ABE8B1E041
:103A9000E0E5F2E04D915D916D917D9162835383FC
:103AA0004483339621E0A33AB207A1F7E4CF809193
:103AB0005102823009F05ECF609152027091530240
:103AC00080915402909155020E94632086E290E01A
:103AD0000E94E020D0CF4091530260915202809129
:103AE00051020E94AE0F982789279827909355027C
:103AF00080935402C0CF2091540230915502322756
:103B00002327322740915302609152028091510243
:103B10000E94B60EB0CF0E94DC0EADCF80E1809344
:103B20005102A9CF1092510289E68CCF0091530225
:103B300010E00D31110508F09ECFE0905102F09099
:103B40005202FE24EF24FE2460E5C62E62E0D62E4B
:103B5000005B1D4FC70189569C4F0C151D0509F4CC
:103B60008ACF39E6E316F10460F40E94D220D60130
:103B700014968C93FFEFEF1AFF0A2FEFC21AD20AA6
:103B8000E9CFF6011482F6CF0E947B0E74CF84E059
:103B9000C6CF0091530210E00D31110508F06BCF34
:103BA000E0905102F0905202FE24EF24FE2440E502
:103BB000C42E42E0D42E005B1D4FC7018796C0166D
:103BC000D10609F458CFE0E6EE16E3E0FE0660F415
:103BD0000E94D220D60114968C93FFEFEF1AFF0AB1
:103BE0002FEFC21AD20AE9CFF6011482F6CFE09085
:103BF0005302F12C3DE1E316F10408F03CCF0091B3
:103C0000510210915202102701271027003643E07D
:103C1000140708F030CF80E693E0801B910B8E15DF
:103C20009F0508F428CF480187E2880E911C8091F7
:103C3000A6019091A70138016E0C7F1C892B99F584
:103C4000680191E0C922DD2400FF0FC0C8018696FB
:103C50000E94D220909154028927982789278115A4
:103C60009C4519F48FEF80935402570160FE14C0F5
:103C7000B1E0AB1AB108F501EC5AFD4F2F01C401B8
:103C80008E0D9F1D0E94D220D2019C9181159C45D2
:103C900019F48FEFF2018083F601E05BFD4F2FEF07
:103CA000CA14DB0428F030E5E32E32E0F32E19C00D
:103CB0009481858181159C4511F42483258342E0FC
:103CC000C40ED11C3296ECCF0036A3E01A0720F4C4
:103CD000F70164810E94E020FFEFEF1AFF0A0F5FF7
:103CE0001F4FC80187960615170571F7C4CE88E0E7
:103CF000EEE6F0E0DE01119601900D928A95E1F773
:103D000080E2A0E5B2E01D928A95E9F785E0809314
:103D1000500288E0FE013196A4E5B2E001900D92D8
:103D20008A95E1F7A8CE8CE98093500282E08093D7
:103D3000510210925202109253029DCE8091530272
:103D4000682F70E0762F662780915202860F972F9A
:103D5000911D092E000CAA0BBB0B25E0880F991FA3
:103D6000AA1FBB1F2A95D1F7AC01BD01405E5F4F72
:103D70006F4F7F4F481759076A077B0708F47BCEC0
:103D80008C39E2E09E07A105B10508F074CE4D39EB
:103D9000F2E05F076105710520F04CE952E060E058
:103DA00070E0481B590BBC016C5A7F4F80E592E0D4
:103DB0000E94B52060CE109152020091530240E063
:103DC000602F812F0E947B0F982789279827909337
:103DD00051028093500241E0602F812F0E947B0F9F
:103DE000982789279827909353028093520243CEB5
:103DF0002091550230915602322723273227211570
:103E00004CE5340741F48091A6019091A701892BDC
:103E100011F430E020E041E080915402811101C0B2
:103E200040E060915302809152020E948B0E23CE9B
:103E30004AE150E06FEF70E086E592E00E94CB200F
:103E40008091A60180935002009351021092520279
:103E50001092530282E0809354028DE080935502C9
:103E60000ACE81E090E09093AB018093AA0130925A
:103E70008A01209289010E946506909388018093AF
:103E80008701F9CD012BA9F110918B01C09093010D
:103E9000D0909401E0909501F09096018091870177
:103EA000909188010E944A068536910568F1D5FAFD
:103EB000CC24C0F8CC2041F110FF26C00E9465063A
:103EC00090938801809387018091890190918A0164
:103ED000019790938A0180938901892B51F4109264
:103EE000AB011092AA01A1E0B0E0B093A701A093AA
:103EF000A6018091A601809350028091AA0180932F
:103F00005102809189019ECD30928A0120928901CF
:103F1000F0CF1092A7011092A601ADCD40E250E083
:103F20006FEF70E080E592E00E94CB20A4CD8091FD
:103F300052028111A0CD80E2E0E5F2E011928A9573
:103F4000E9F799CDF89421B3939A822F8C6081BBC5
:103F500092B33CE0932792BBFFE748E381E0F15046
:103F600040408040E1F700C0000082B3832782BB5D
:103F700021BB939878948DCB86E290E00E94D2206A
:103F800010925202109253021092540267CF0E9474
:103F9000590C80914802882309F4AACC80917F02B1
:103FA00084FFA6CC0E94B4108AE691E098A78FA364
:103FB000ABE8B1E0BAA7A9A7FC0101911191219149
:103FC00031914D915D916D917D9182E891E08E17D7
:103FD0009F0709F4B3CB041715072607370769F3C2
:103FE00010E0A9A5BAA5CD90DD90ED90FD90BAA7FF
:103FF000A9A7EFA1F8A581909190A190B190F8A701
:10400000EFA38C149D04AE04BF04E1F18C249D2425
:10401000AE24BF2400E0412C512C32014394D50141
:10402000C40184219521A621B721892B8A2B8B2BB2
:10403000D9F00AA31BA321E0D701C6018421952151
:10404000A621B721892B8A2B8B2B09F420E02CA3E6
:104050000E9465068160782F9EA38DA34AA15BA173
:104060006CA18EA10E943E190F5F440C551C661C6A
:10407000771C0231A1F6EFA1F8A53497C082D18256
:10408000E282F3821F5F163009F0ABCF0E9459061F
:1040900079CB97FB072E16F4009407D077FD09D053
:1040A0000E94A12007FC05D03EF4909581959F4F7A
:1040B0000895709561957F4F0895EE0FFF1F05904D
:1040C000F491E02D09946927962769277827872797
:1040D000782708952F923F924F925F926F927F922E
:1040E0008F929F92AF92BF92CF92DF92EF92FF9208
:1040F0000F931F93CF93DF93CDB7DEB7CA1BDB0BB4
:104100000FB6F894DEBF0FBECDBF09942A88398858
:1041100048885F846E847D848C849B84AA84B9845F
:10412000C884DF80EE80FD800C811B81AA81B9816B
:10413000CE0FD11D0FB6F894DEBF0FBECDBFED017F
:104140000895AA1BBB1B51E107C0AA1FBB1FA617DE
:10415000B70710F0A61BB70B881F991F5A95A9F730
:1041600080959095BC01CD010895FB01DC0102C052
:1041700005900D9241505040D8F70895FB01DC01A5
:1041800004C08D910190801921F441505040C8F72E
:10419000881B990B0895DC0101C06D93415050407C
:1041A000E0F70895E199FECF9FBB8EBBE09A992777
:1041B0008DB30895A8E1B0E042E050E00C940521F1
:1041C000262FE199FECF9FBB8EBBE09A01970DB2DF
:1041D000021631F02DBB0FB6F894E29AE19A0FBEA9
:1041E00008950396272F0E94E1200E94E020252FAA
:1041F0000E94E120242F0C94E1200196272F0E9499
:10420000E1200C94E020DC01CB01FC01E199FECF20
:1042100006C0FFBBEEBBE09A31960DB20D92415045
:104220005040B8F70895F894FFCF0A150A154315C2
:10423000431501167115711571151B168616951605
:104240009516771E931E9E1EDB1EF81E181F311F2B
:0E425000421F891F8E1F3B1D3B1D3B1D971FEC
:10425E0034064F0E33061B0E160E3206FF5A551D30
:10426E005F2EAAF0D0DE818283E200E900EA00B57B
:10427E0000B600B700CD008301CC008A01920194F4
:10428E00012102230224022502260227022A02B35A
:10429E0000B4006F007000323337343635906091C1
:1042AE0061926293639464959697060501000700E8
:1042BE00FF0100010000FFFF0000010001FF0000F0
:00000001FF
